:1000000016C030C02FC02EC00DC22CC02BC02AC0BD
:1000100029C028C027C026C0E4C124C023C00102D3
:1000200004081020010101010101003800371124EA
:100030001FBECFE5D2E0DEBFCDBF10E0A0E6B0E04E
:10004000E0E7F7E002C005900D92A236B107D9F7BC
:1000500020E0A2E6B0E001C01D92AA37B207E1F7A6
:1000600043D384C3CDCFCF93DF9368E270E081E0C8
:100070009FD262E370E080E090E03FD281E07AD2EC
:10008000EC0160E070E081E093D2CE019595879518
:1000900095958795DF91CF910895CF93DF93D7B151
:1000A000C6B18CE087B962E070E080E090E025D2D4
:1000B000369A3699FECF84B185B1369A3699FECFFD
:1000C00024B185B1D7B9C6B930E0382B40E050E053
:1000D00060E070E381E190E00BD3C901DF91CF9143
:1000E000089561E081E099D261E080E096D261E01C
:1000F00085E093D261E080E0C7D261E085E0C4D2C0
:1001000060E081E0C1D288EE93E090936700809335
:100110006600C3DF9093630080936200479A81E397
:1001200095E7A0E0B0E080936C0090936D00A09301
:100130006E00B0936F008091660090916700019609
:1001400090936B0080936A000895A895F89414BE6C
:1001500021B5286121BD20E421BD8A3F910571F1BF
:1001600090F48032910581F128F4409781F581B5B2
:1001700081BD2DC08034910521F18D37910539F570
:1001800081B5836026C0803D27E09207A1F030F45E
:10019000843F9140E1F481B585601BC0803A2FE037
:1001A000920731F080349F4191F481B5816211C092
:1001B00081B580620EC081B587600BC081B5846057
:1001C00008C081B5826005C081B5816002C081B57B
:1001D000866081BD78940895A895F89414BE81B581
:1001E000886181BD11BC78940895CF93DF93EC01B1
:1001F000379885B7877E806185BF85B7806285BF68
:10020000CE01A3DFF89485B7982F9468909365008A
:100210008B7F80688093640095BF8091640085BF68
:1002200078948895F89485B78F7D85BFD5DF7894CD
:10023000379A40916C0050916D0060916E00709102
:100240006F004C0F5D1F611D711D40936C0050933A
:100250006D0060936E0070936F0080916A009091C2
:100260006B008C0F9D1F90936B0080936A00DF9151
:10027000CF910895CF9380916C0090916D00A091E3
:100280006E00B0916F0080339547A105B105A8F1CC
:1002900004DF9093630080936200803A2FE092071E
:1002A00014F084EB06C0883B9B4014F08AEA01C03E
:1002B00080EA80936000D7DE10926C0010926D008F
:1002C00010926E0010926F0020916000281750F479
:1002D000409168005091690030E04217530708F4DC
:1002E0007DC006C020E335E73093670020936600A9
:1002F00090E0909369008093680020916A003091AB
:100300006B0080916600909167002817390708F408
:1003100049C020916800309169008091600090E0B0
:100320008217930700F5C3E060E080E0ADD18DE770
:1003300090E05BDF61E080E0A7D18DE790E055DFE2
:10034000C15091F7809166009091670088519C4F51
:10035000813325E7920710F080E395E790936700DB
:100360008093660003C061E080E08ED180916200DE
:1003700090916300813F9A402CF010926B00109294
:100380006A0010C0C3E060E085E07ED18DE790E0B8
:100390002CDF61E085E078D18DE790E026DFC15069
:1003A00091F7EBCF809166009091670080342FE148
:1003B000920718F080E49FE10FC0803A2FE0920787
:1003C00018F080EA9FE008C0803D974018F080ED6B
:1003D00097E002C088EE93E0CF9107CF28EE33E09C
:1003E00083CF1F920F920FB60F9211248F9388E143
:1003F0000FB6F89481BD11BC0FBE8F910F900FBE48
:100400000F901F90189583B7887F83BF8AB58C7F24
:1004100081608ABD83B7877F83BF83B7887F816010
:1004200083BF089578941F920F920FB60F921124F4
:100430002F933F938F939F93AF93BF9380917100BE
:1004400090917200A0917300B0917400309170008F
:1004500021E0230F2D3728F024E8230F0196A11D5A
:10046000B11D209370008093710090937200A0934F
:100470007300B09374008091750090917600A09104
:100480007700B09178000196A11DB11D8093750091
:1004900090937600A0937700B0937800BF91AF91CE
:1004A0009F918F913F912F910F900FBE0F901F90B2
:1004B00018953FB7F8948091750090917600A091BF
:1004C0007700B09178002FB508B602FE05C02F3F27
:1004D00019F00196A11DB11D3FBF6627782F892F06
:1004E0009A2F620F711D811D911D44E0969587958D
:1004F000779567954A95D1F70895CF92DF92EF925D
:10050000FF92CF93DF936B017C01D3DFEB01C1142A
:10051000D104E104F10471F0CCDF6C1B7D0B683E6B
:100520007340A8F381E0C81AD108E108F108C85166
:10053000DC4FEDCFDF91CF91FF90EF90DF90CF9028
:100540000895789480B7806880BF80B7806480BF4A
:100550008CB580648CBD8FEF8DBD80B7807F81604E
:1005600080BF89B7846089BF4EDF86B1876086B956
:10057000379A0895863008F086503091790027B177
:10058000932F9295990F990F907C2F72922B32FB9B
:10059000332730F93295307F932B97B997B1907FFD
:1005A000982B97B9369A3699FECF84B195B10895B4
:1005B0001F93CF93DF93182FEB0161E02ED01C1611
:1005C0001D0614F060E004C0CF3FD10534F061E0B7
:1005D000812FDF91CF911F9157C0111106C08AB5AD
:1005E0008F7380688ABDC9BD14C0113031F480B7E3
:1005F0008F7C806280BFCEBD0CC0143031F48CB5CE
:100600008F7C80628CBDCBBD04C0C038D105FCF6A8
:10061000D9CFDF91CF911F910895CF93DF9390E0D1
:10062000FC01E25EFF4F2491FC01EC5DFF4F8491E1
:10063000882339F190E0FC01E45DFF4FA491B0E024
:10064000FC01E65DFF4F8491611106C09FB7F894ED
:100650008C912095822313C0623069F4C82FD0E0BA
:100660009FB7F8948C91322F309583238C93888197
:10067000822B888305C09FB7F8948C91822B8C9332
:100680009FBFDF91CF910895A82FB0E0FD01E25EFA
:10069000FF4F9491FD01EC5DFF4FE491EE2319F1C2
:1006A000811104C08AB58F738ABD0BC0813021F4DB
:1006B00080B78F7C80BF05C0843019F48CB58F7CE7
:1006C0008CBDF0E0E65DFF4FA491B0E02FB7611163
:1006D00005C0F8948C919095892303C0F8948C916F
:1006E000892B8C932FBF08952CDFFBDCC3DDFECF5D
:1006F000052E97FB16F400940FD057FD05D014D0AB
:1007000007FC02D046F408C05095409530952195DD
:100710003F4F4F4F5F4F089590958095709561952D
:100720007F4F8F4F9F4F0895A1E21A2EAA1BBB1B2C
:10073000FD010DC0AA1FBB1FEE1FFF1FA217B307AD
:10074000E407F50720F0A21BB30BE40BF50B661FC3
:10075000771F881F991F1A9469F760957095809587
:1007600090959B01AC01BD01CF010895F894FFCF96
:02077000A000E7
:00000001FF
